:0300230002AED456
:0300A30002B14463
:03000B0002C2C26C
:0300000012C4B374
:20CC7D0007D308520000000000000000000000000000000000000000000000000000000063
:20CC9D0000000000000000000000000000000000000000000000000000000000000006561B
:20CCBD0006D50000000000000000000000000000000000000000000000000000000000007C
:20CCDD0000000000000000000000000000000000000000000000000000000000041005D747
:20CCFD00010000000000000000000000000000000000000000000000000000000000000016
:20CD1D0000000000000000000000000000000000000000000000000000000558075401003D
:20CD3D000000000000000000000000000000000000000000000000000000000000000000D6
:20CD5D000000000000000000000000000000000000000000000000001064190A64320A057A
:20CD7D0007070B0B1428138803E801F406044B6403646414050C0C0E0E141403E8FF6AFF6F
:20CD9D006A00044B640364641405190F1E14141403E8000000000005008080000F0A0000EA
:20CDBD00000000000000000000000000000000000000000000000000000000000000000056
:20CDDD000000000000000000000000000000000000000000008080808080000000000300B3
:20CDFD00000000000000000000000000000000000000000000000000000000000000000016
:20CE1D000000000000000000000000000000000000000000000000000000000000000000F5
:20CE3D000000000000000000000000000000000000000000000000000000000000000000D5
:20CE5D000000000000000000000000000000000000000000000000000000000000000000B5
:20CE7D00000000000000000000000000000000000000000000000000000000000000000095
:20CE9D00000000000000000000000000000000000000000000000000000000000000000075
:20CEBD00000000000000000000000000000000000000000000000000000000000000000055
:20CEDD00000000000000000000000000000000000000000000000000000000000000000035
:20CEFD00000000000000000000000000000000000000000000000000000000000000000015
:20CF1D000000000000000000000000000000000000000000000000000000000000000000F4
:20CF3D000000000000000000000000000000000000000000000000000000000000000000D4
:20CF5D000000000000000000000000000000000000000000000000000000000000000000B4
:20CF7D00000000000000000000000000000000000000000000000000000000000000000094
:20CF9D00000000000000000000000000000000000000000000000000000000000000000074
:20CFBD00000000000000000000000000000000000000000000000000000000000000000054
:20CFDD00000000000000000000000000000000000000000000000000000000000000000034
:20CFFD00000000000000000000000000000000000000000000000000000000000000000014
:20D01D000000000000000000000000000000000000000000000000000000000000000000F3
:20D03D000000000000000000000000000000000000000001000000000000000000000000D2
:20D05D000000E299041005D7E295065606D5E2A907D30852E2A105580754000000000000A0
:20D07D00000000000000000000000000000000000000000000000000000000000000000093
:20D09D00000000000000000000000000000000000000000000000000000000000000000073
:20D0BD00000000000000000000000000000000000000000000000000000000000000000053
:20D0DD00000000000000000000000000000000000000000000000000000000000000000033
:20D5DD0000000000000000000000000000000000000000000000000000000001000000002D
:20D5FD0000000000000000000000000000000000000000000000000000000000000000000E
:20D61D000000000000000000000000000000000000000000000000000000000000000000ED
:20D63D000000000000000000000000000000000000000000000000000000000000000000CD
:20D65D000000000000000000000000000000000000000000000000000000000000000000AD
:04D67D0000000000A9
:20D68100DB960492D70BDB6B052ADB65E019045AD70BDCEC1368D70BDF760492D70BDCCE16
:20D6A1001036D70BDD821002D91AD7510209DB72DF8E00A6DA2ADEA31062D70BDCB70A03D1
:20D6C100E01CDAED071DD843E1180EAFDE4FD78606D0D70BDD840BB9DBD0D9FC0823D8DFC8
:20D6E100DCD10FA1E0D5DFED0AF5D70BD75611CDD70BDF4905C7DE3ADCA3042ED70BE18B72
:20D701000677E11B00000000D70B000D0A7C20202020207C204A6F79737469636B2020202E
:20D72100202020202020202020202020202020207C205365617263686C696768742020207E
:20D7410020202020202020202020202020207C00746F75720076657273696F6E000D0A5451
:20D761004F55522053544F5050454420425920484F4D4520504F534954494F4E20434F4DDB
:20D781004D414E44007070000D0A5479706520202020547820202020527820202020205445
:20D7A100797065202020205478202020205278000D0A2575000D0A547920446573637220BE
:20D7C1005374204375727251207C20506B744F4B204572537478204572436B4C20457245EC
:20D7E100747820546F74616C202346756C6C204D61746368205478496E74205278496E7409
:20D801002042726F6164000D0A25303264000D0A7569493263497372202020203A20257588
:20D82100000D0A2535752C2535752C2535752C253575004D415247494E414C2028253275B1
:20D84100290070616E72616E67652074696C7472616E676520666F63757372616E676520FB
:20D861006164636176672070616E706F7473006D61696E000D0A4F5554204F462052414EB2
:20D8810047453A202B2F2D3138303030002044575F4245414D000D0A3F000D0A456E64204E
:20D8A1006F66204C696665204D6573736167652020456E61626C6564000D0A544F555220A1
:20D8C10050415553454420425920544F555220434F4E54524F4C205041434B455400706176
:20D8E1006E706F732074696C74706F732072617465000D0A232020417A20202020456C65A1
:20D901007620205261746520204F7074696F6E730063757272656E74006D205B73746174F1
:20D92100655D000D0A4F4646000D0A544F55522053544F505045442042454341555345205A
:20D941004E45585420544F5552204953204D495353494E472056414C494420504F494E54ED
:20D9610053000D0A3D3D3D3D3D3D3D202020203D3D3D3D3D3D000D0A4C616D7020536572B8
:20D9810069616C204E756D62657220202027257327000D0A3D3D203D3D3D3D3D203D3D20E5
:20D9A1003D3D3D3D3D207C203D3D3D3D3D203D3D3D3D3D203D3D3D3D3D203D3D3D3D3D2035
:20D9C1003D3D3D3D3D203D3D3D3D3D203D3D3D3D3D203D3D3D3D3D203D3D3D3D3D203D3D37
:20D9E1003D3D3D000D0A506F6C617220506F696E7420436F6D706C65746500706F6C6172B9
:20DA0100000D0A4175746F2052657475726E205365636F6E647320202575004F4E20204CC3
:20DA2100494E452020202020006E616D65205B6D61696E7C536572506F72747C4574685070
:20DA41006F72745D205B6E616D655D000D0A2B2D2D2D2D2D2B2D2D2D2D2D2D2D2D2D2D2D5D
:20DA61002D2D2D2D2D2D2D2D2D2D2D2D2D2D2D2D2D2B2D2D2D2D2D2D2D2D2D2D2D2D2D2D07
:20DA81002D2D2D2D2D2D2D2D2D2D2D2D2D2D2D2B000D0A7C41646472207C205374617475DC
:20DAA100732020202020202020202020205478202020205278207C205374617475732020DC
:20DAC10020202020202020202054782020202052782020207C000D0A6E616D65204574683A
:20DAE100506F7274203D202725732700707262636F6E666967000D0A2025303275202020D0
:20DB010020202573202536752536752020202573253675253675000D0A3D3D3D3D20203D4C
:20DB21003D3D3D20203D3D3D3D20202020203D3D3D3D20203D3D3D3D20203D3D3D3D000DF0
:20DB41000A505242205245534554000D0A25642C25752C2020202025642C25750052582008
:20DB6100002563005B312F305D0063616C706F7400746F7572206E756D6265720025337511
:20DB8100253675207C253675253675253675253675253675003F0020544F5F415558310088
:20DBA1004D617267696E616C2028253275290020544F5F415558330020544F5F4155583277
:20DBC100004D41535445522D3E2020202020005B6C6F7720706F6C6C207468726573686FCC
:20DBE1006C645D00253675253675253675253675253675000D0A75694D61696E53746174D1
:20DC010075733A202575000D0A4C616D7020202020202020202020202020202020204861BD
:20DC21006C6F67656E000D0A4C6F7720506F6C6C205468726573686F6C643A202564000D11
:20DC41000A4E6F204E65787420546F7572000D0A4D61736B3A2025642C2044657461696C4E
:20DC6100733A202564000D0A4C616D70204D6F64656C204E756D62657220202020272573D3
:20DC810027000D0A456E64206F66204C696665204D657373616765202044697361626C65C0
:20DCA10064006261736574797065000D0A534C432025643E2000706964000D0A505242204A
:20DCC100426C616E6B696E673A2025750069640072656C6179000D0A546F757220256400D5
:20DCE1002020204E4F54205345540063000D0A76322E3031206F66204A756E2032352032FA
:20DD01003032312061742031313A31353A3438000D0A4F4E000D0A4C616D702020202020BD
:20DD21002020202020202020202020204D6574616C2048616C696465000D0A544F55522087
:20DD410053544F5050454420425920544F555220434F4E54524F4C205041434B4554000D58
:20DD61000A50616E2020486F6D65203D202564000D0A54696C7420486F6D65203D20256447
:20DD8100006D0070000D0A4F4B000D0A253853202553000D0A25642C2025642C2025642C1F
:20DDA1002025642C202564000D0A3D3D203D3D3D3D3D203D3D3D3D3D203D3D3D3D3D203D03
:20DDC1003D3D3D3D3D3D000D0A4669726D776172652056657273696F6E2020202020763232
:20DDE1002E3031206F66204A756E20323520323032312061742031313A31353A3438002008
:20DE0100202530327820253575202535752020202020000D0A544F555220524553554D4512
:20DE21004420425920544F555220434F4E54524F4C205041434B45540070616E6F66667372
:20DE410065742074696C746F66667365740052454D3A2053686F7773207061636B65747327
:20DE61002062792074797065000D0A6E616D65206D61696E203D2027257327000D0A544F2A
:20DE810055522053544F5050454420425920504F4C415220434F4F524420434F4D4D414ED0
:20DEA10044007365747570000D0A544F55522053544F50504544204259204A43533A202512
:20DEC1007520583A257520593A2575205A3A257500253664006F6666206C696E65202020C3
:20DEE1002020002044575F41555832002044575F41555833002D2D2D2D2D2D2D2D202020A4
:20DF01002020000D0A4261736520547970653A202575000D0A75694D61696E4379636C650E
:20DF2100733A202575000D0A4A43533A20257520583A257520593A2575205A3A2575002087
:20DF410044575F4155583100736574686F6D65000D0A507262205072696E74204F4E000D80
:20DF61000A6E616D6520536572506F7274203D20272573270068656C7000545820000D0A17
:20DF81004E65787420546F7572202564006E616D65000D0A7569556172743049737220209E
:20DFA1003A202575000D0A7569556172743149737220203A20257500536572506F72740079
:20DFC1000D0A507262205072696E74204F4646000D0A44657461696C732020202020202020
:20DFE1002020202020202025303278007374617475730020544F5F4245414D000D0A436F9D
:20E001006D6D616E642020202053796E746178000D0A2553253553006D7300706761696EC0
:20E0210020696761696E20646761696E000D0A4C616D702020202020202020202020202053
:20E041002020202058656E6F6E000D0A506F6C6C20526573706F6E736520576169743A200B
:20E061002564206D73000D0A4D61696E20446576696365204E616D6520202020202725730A
:20E0810027000D0A536572506F727420446576696365204E616D65202020202027257327DB
:20E0A100000D0A53743A25752053313A25782053323A25782053333A25782053343A2578BB
:20E0C1002053353A257820493A2534752054493A253475006964205B73746174655D00457F
:20E0E1007468506F7274000D0A20202020202020202020202020202020202020202025754D
:20E10100000D0A202025303278202535752025357520202020200070610064656275676DE5
:20E1210061736B20646562756764657461696C73000D0A4C616D70202020202020202020D1
:20E1410020202020202020204E6F74205365747570000D0A457468506F72742044657669D7
:20E161006365204E616D65202020202027257327000D0A546F757220506F696E7420256916
:20E1810020436F6D706C657465006465627567000D0A436F6D70617261746F72203020522D
:20E1A10065736574000D0A534C432025643E20000D0A436C6F636B204465746563746F7250
:20E1C100205265736574000D0A574454205265736574000D0A4861726477617265205069D4
:20E1E1006E205265736574000D0A536561726368204C6967687420436F6E74726F6C6C6536
:20E20100720D0A76322E3031206F66204A756E20323520323032312061742031313A313578
:20E221003A34390D0A28632920323030362D3230323020546865204361726C69736C6520E2
:20E24100262046696E636820436F6D70616E790D0A414C4C20524947485453205245534568
:20E2610052564544000D0A434E5653545230205265736574000D0A536F66747761726520A0
:20E281005265736574000D0A506F7765722052657365740050726200536572506F72740040
:20E2A100457468506F7274004D61696E0053657220534C20253032752020003F4C4D4E00A7
:20E2C10053726368204C7420253032752020003F4C534E000D0A524553455420464C415365
:20E2E1004820544F55522023202564000D0A524553455420464C415348204D495343000DFE
:20E301000A524553455420464C415348204C414D502054494D450045746820534C202530F3
:05E32100327520200010
:2000A600740212C5A7EEF0A3EFF07E007F5112C5F87B517A007D007CF0740012C58A125C57
:2000C6001E900224E0FAA3E0FBEB4A70030201B77D707CD8AF03AE0212BF8A702390022643
:2000E600E0FEA3E0FF12BD7FEF24F4EE34FF4010900226E0FCA3E0FD740212C58A12BC3EDD
:200106007DB97CDF900224E0FEA3E0FF12BF8A7023900226E0FEA3E0FF12BD7FEF24F4EEE9
:2001260034FF4010900226E0FCA3E0FD740E12C58A12BC3E7DE07CE0900224E0FEA3E0FF64
:2001460012BF8A7023900226E0FEA3E0FF12BD7FEF24F4EE34FF4010900226E0FCA3E0FDB9
:20016600741A12C58A12BC3E7FF01258F87B517A00740012C58AAD07AC067F007EF01259D4
:2001860066740212C58AAD07AC067FFC7E0412BC3E740E12C58AAD07AC067F087E0512BC8C
:2001A6003E741A12C58AAD07AC067F147E0512BC3E740212C58A12C5D67D6A7CDE745312E6
:2001C600C53E1252C27B0212C593740E12C58A12C5D67D607CDF745312C53E1252C27B02C2
:2001E60012C593741A12C58A12C5D67DD77CDA745312C53E1252C27B0212C5937A007B5318
:2002060002C61B740212C5A7EEF0A3EFF07E007F0B12C5F8900193E0FF740812C4D2740827
:2002260012C52624F04007740812C526700F7D977CD8740B12C53E1252C20204277408128B
:20024600C526FF7E0012C5D67DD77CDC740D12C53E1252C27B0212C5937DF37CD8740B12DF
:20026600C53E1252C27DA97CDD740B12C53E1252C27A00AF02740912C4D20203E174091251
:20028600C526FB7A00EB2401FFEA3400FE12C5D67D087CD8740D12C53E1252C27B0212C537
:2002A60093740A12C58A12C5D6740212C58AAB07AA06740B12C526FD740A12C526FF1F12BC
:2002C6005F5E7B0212C593740412C53EBFFF12BEFF0F7DE17CDC740B12C53E1252C20203D6
:2002E600D9740012C53E12C5D67DD27CDE740D12C53E1252C27B0212C593740212C53E1200
:20030600C5D67DD27CDE740D12C53E1252C27B0212C593740412C53E7DFF7C0F12C655121D
:20032600C5D67DD27CDE740D12C53E1252C27B0212C593740712C52630E00C7D987CDB745C
:200346000B12C53E1252C2740712C52630E20C7DB97CDB740B12C53E1252C2740712C526FC
:2003660030E30C7DF47CDF740B12C53E1252C2740712C52630E40C7DB07CDB740B12C53E22
:200386001252C2740712C52630E10C7D407CDF740B12C53E1252C2740712C52630E50C7DB4
:2003A600E47CDE740B12C53E1252C2740712C52630E60C7D8E7CD8740B12C53E1252C27418
:2003C6000712C52630E70C7DED7CDE740B12C53E1252C2740912C576E004F0740912C5265A
:2003E60024EC4003020283740A12C526B4FF0E7D407CDC740B12C53E1252C28024740A12DE
:20040600C526FB7A00EB2401FFEA3400FE12C5D67D7F7CDF740D12C53E1252C27B0212C537
:20042600937A007B0D02C61B740212C5A7EEF0A3EFF09002A9E0FF7E0012C5D67D047CDFC9
:20044600740212C53E1252C27B0212C5937A007B0202C61B740212C5A7EEF0A3EFF07D80D3
:200466007C007F01129C527D807C007F02129C527D807C007F03129C527D867CDD740012A3
:20048600C53E1252C27A007B0202C61B740212C5A7EEF0A3EFF07E007F0212C5F87F817EB3
:2004A600D6740012C4EC7DFD7CDF740212C53E1252C27D637CD9740212C53E1252C28049F5
:2004C600740012C53EEF2404F582EE3400F583E493FE740193FF12C5D6740212C53E8F82A0
:2004E6008E83E493FE740193FF12C5D67D8B7CDD740612C53E1252C27B0412C59374001237
:20050600C5767F067E0012C67B740012C53E8F828E83E493FA740193FBEB4A70A37A007BE8
:200526000402C61B740212C5A7EEF0A3EFF09001BCE0B40234900192E0FAA3E0FBEB4A6053
:20054600157D117CDD740012C53E1252C290018BE04401F080137D247CD9740012C53E1295
:2005660052C290018BE054FEF07A007B0202C61B7E007F5112C5F87B517A007D007CF07489
:200586000012C58A125C1E900554E0FEA3E0FF744B12C4EC900556E0FEA3E0FF744D12C4BC
:2005A600EC7FF01258F87B517A00740012C58AAD07AC067F007EF01259667A007B5102C62B
:2005C6001B740212C5A7EEF0A3EFF09001BCE0B402367D127CD9900224E0FEA3E0FF12BFC2
:2005E6008A7025900207E0FAA3E0FB900554EAF0EBA3F0900209E0FCA3E0FD900556ECF0E6
:20060600EDA3F0120576802A9001BCE0B40323900192E0FAA3E0FB900554EAF0EBA3F090CA
:200626000194E0FCA3E0FD900556ECF0EDA3F0120576900554E0FEA3E0FF12C5D67D607CA0
:20064600DD740212C53E1252C27B0212C593900556E0FEA3E0FF12C5D67D717CDD74021258
:20066600C53E1252C27B0212C5937A007B0202C61B740212C5A7EEF0A3EFF0900193E090A2
:20068600024FF0900195E090021DF090024FE0600D740012C53E9001C9EEF0EFA3F090026B
:2006A6001DE0FF7E0012C5D690024FE0FF7E0012C5D67D4F7CDC740412C53E1252C27B04CC
:2006C60012C5937A007B0202C61B740212C5A7EEF0A3EFF090024FE030E11590024FE05480
:2006E600FDF07DC17CDF740012C53E1252C2802090024FE04402F0740012C53E9001C9EE57
:20070600F0EFA3F07D517CDF740012C53E1252C27A007B0202C61B740212C5A7EEF0A3EF4B
:20072600F07E007F5912C5F87D577C00740012C58A12C1E8740512C58A745712C4EC9001C6
:20074600BCE024FD5038900192E0FAA3E0FB745712C53EEF2402F582EE3400F583EAF0EB08
:20076600A3F0900194E0FAA3E0FB745712C53EEF2404F582EE3400F583EAF0EBA3F0900172
:20078600BCE024FC501C900196E0FAA3E0FB745712C53EEF2406F582EE3400F583EAF0EBDD
:2007A600A3F09001BCE024FB5016900199E0FA745712C53EEF2401F582EE3400F583EAF00B
:2007C6009002A9E0FA745712C53E8F828E83EAF09001E6E02410FF740312C4D29001E6E022
:2007E6002440FF740412C4D27A11AF02740112C4D27A0EAF02740212C4D2740012C58AAD3E
:2008060007AC067FD57E0612AA397D867CDD745912C53E1252C27A007B5B02C61B7402122D
:20082600C5A7EEF0A3EFF07E007F0412C5F89001BCE0B40302800302090A9002A9E0B402C7
:2008460069900192E0FEA3E0FFEE3395E0FDFC12CA6E900554E0FEA3E0FFE4FDFC12C98D3F
:20086600740012C506900192E0FAA3E0FBEB24AFEA64803439400AEB2450EA648034C640FC
:200886000F7D757CD8740412C53E1252C20209FC740012C55712CA6EE4FCFD7E8C7FA0123F
:2008A600C98D9001BD12CB4B8023900192E0FAA3E0FB900554E0FCA3E0FDEB2DFBEA3CFAD0
:2008C600AF03AE029001BDE4FDFC12CB4B900194E0FAA3E0FB900556E0FCA3E0FD90018C7C
:2008E600EB2DCA3CF0A3EAF090018E7403F074E8A3F09001E97401F07D117CDD740412C5DD
:200906003E1252C29001BCE0B4040280030209E69002A9E0B40269900192E0FEA3E0FFEE67
:200926003395E0FDFC12CA6E900554E0FEA3E0FFE4FDFC12C98D740012C506900192E0FAEA
:20094600A3E0FBEB24AFEA64803439400AEB2450EA648034C6400F7D757CD8740412C53E87
:200966001252C20209FC740012C55712CA6EE4FCFD7E8C7FA012C98D9001BD12CB4B8023D1
:20098600900192E0FAA3E0FB900554E0FCA3E0FDEB2DFBEA3CFAAF03AE029001BDE4FDFCD1
:2009A60012CB4B900194E0FAA3E0FB900556E0FCA3E0FD90018CEB2DCA3CF0A3EAF090010C
:2009C60096E0FAA3E0FB90018EEAF0EBA3F09001E97401F07D117CDD740412C53E1252C233
:2009E6009001BCE0B4010F12006A7D247CD9740412C53E1252C27A007B0602C61B74021275
:200A0600C5A7EEF0A3EFF09001BCE0B40464900192E0FAA3E0FB90019CEAF0EBA3F090012A
:200A260094E0FCA3E0FD90019EECF0EDA3F0900196E0FEA3E0FF9001A0EEF0EFA3F090028B
:200A4600F1EAF0EBA3F0A3ECF0EDA3F0A3EEF0EFA3F090030EEAF0EBA3F0A3ECF0EDA3F04D
:200A6600A3EEF0EFA3F07D867CDD740012C53E1252C29001BCE0B4054C900192E0FAA3E0B0
:200A8600FB90019CEAF0EBA3F0900194E0FCA3E0FD90019EECF0EDA3F0900196E0FEA3E03C
:200AA600FF9002F1EEF0EFA3F0900198E0FAA3E0FB9002F3EAF0EBA3F07D867CDD7400120E
:200AC600C53E1252C29001BCE0B4021C900192E0FAA3E0FB90019EEAF0EBA3F07D867CDD8A
:200AE600740012C53E1252C27A007B0202C61B740212C5A7EEF0A3EFF09003D8E0FEA3E047
:200B0600FF12C5D67DF57CDB740212C53E1252C27B0212C5939003DAE0FEA3E0FF12C5D648
:200B26007D147CDF740212C53E1252C27B0212C5939003DCE0FEA3E0FF12C5D67D937CDF44
:200B4600740212C53E1252C27B0212C5939003DEE0FEA3E0FF12C5D67DA67CDF740212C5AE
:200B66003E1252C27B0212C5939003E0E0FEA3E0FF12C5D67D0F7CD8740212C53E1252C213
:200B86007B0212C59390099CE0FEA3E0FF12C5D67DBB7CDC740212C53E1252C27B0212C591
:200BA600937D0A7C007FD87E0312C1E87A007B0202C61B740212C5A7EEF0A3EFF07E007FDB
:200BC6002A12C5F89001BCE024FE5008900193E090013EF09001BCE024FD5010900194E0F9
:200BE600FAA3E0FB90013CEAF0EBA3F090013EE0FF7E0012C5D67D277CDC742C12C53E12B6
:200C060052C27B0212C59390013CE0FEA3E0FF12C5D67D4B7CE0742C12C53E1252C27B027D
:200C260012C5937D4D7CDA742A12C53E1252C27D0C7CD7742A12C53E1252C27D927CDA74BD
:200C46002A12C53E1252C27D4D7CDA742A12C53E1252C27A00AF02740012C4D2020E9C74C9
:200C66000012C5262410FF740112C4D29001E6E0900326FAE06A600F7DF67CDE741612C530
:200C86008A12520D020D14740012C52690022C12C6C8E0600F740012C52690022C12C6C843
:200CA600E0B40125740012C52690022C12C6C8E0FF7E0012C5D67D1C7CDA741812C58A12AD
:200CC600520D7B0212C5938045740012C52690022C12C6C8E090013EFAE0B5020E7DD67C17
:200CE600DE741612C58A12520D8023740012C52690022C12C6C8E0FF7E0012C5D67DA17C9E
:200D0600DB741812C58A12520D7B0212C593740012C526900326FAE0FBEAB5030F7DC27C42
:200D2600DB740212C58A12520D020DD49001E6E0900326FAE06A600F7DF67CDE740212C5CA
:200D46008A12520D020DD4740112C52690022C12C6C8E0600F740112C52690022C12C6C8C0
:200D6600E0B40125740112C52690022C12C6C8E0FF7E0012C5D67D1C7CDA740412C58A12FF
:200D8600520D7B0212C5938045740112C52690022C12C6C8E090013EFAE0B5020E7DD67C55
:200DA600DE740212C58A12520D8023740112C52690022C12C6C8E0FF7E0012C5D67D347C5D
:200DC600D8740412C58A12520D7B0212C593740112C52690039012C6D1E0FEA3E0FF12C58F
:200DE600D6740312C5269002AF12C6D1E0FEA3E0FF12C5D6740612C58A12C5D6740612C5D3
:200E06002690039012C6D1E0FEA3E0FF12C5D6740812C5269002AF12C6D1E0FEA3E0FF12F8
:200E2600C5D6742012C58A12C5D6740C12C526FB7A00EB2401FFEA3400FE12C5D67DF77CB5
:200E4600DA743812C53E1252C27B0E12C593740112C52690039012C6D1E4F0A3F0FBFA043A
:200E660012C5269002AF12C6D1EAF0EBA3F0740012C52690039012C6D1EAF0EBA3F0740024
:200E860012C5269002AF12C6D1EAF0EBA3F0740012C576E004F0740012C52624F0400302AE
:200EA6000C657A007B2C02C61B740212C5A7EEF0A3EFF07E007F0112C5F87D897CD77401C8
:200EC60012C53E1252C27D187CDB740112C53E1252C27A00AF02740012C4D2020F787400F1
:200EE60012C52690093712C6D1E0FEA3E0FF12C5D6740212C5269008D112C6D1E0FEA3E083
:200F0600FF12C5D6740412C526FF7E0012C5D67D027CE1740712C53E1252C27B0612C59303
:200F2600740012C52690095712C6D1E0FEA3E0FF12C5D6740212C5269008F112C6D1E0FE11
:200F4600A3E0FF12C5D6740412C526FB7A00EB2410FFEA3400FE12C5D67D007CDE74071227
:200F6600C53E1252C27B0612C593740012C576E004F0740012C52624F04003020EE47D4049
:200F86007C007FD17E0812C1E87D407C007F377E0912C1E87A007B0302C61B740212C5A73E
:200FA600EEF0A3EFF09001BCE024FD5010900192E0FAA3E0FBEB24F8EA34FF500E7D977C90
:200FC600D8740012C53E1252C2802A900194E0FAA3E0FBEB4A600A900193E0FF12A02B805E
:200FE60008900193E0FF129EF47D867CDD740012C53E1252C27A007B0202C61B740212C50A
:20100600A7EEF0A3EFF09001BCE0B4031C900194E0FCA3E0FD900193E0FF129C527D867CC0
:20102600DD740012C53E1252C27A007B0202C61B740212C5A7EEF0A3EFF09001E6E0FF7E1C
:201046000012C5D67DB17CD7740212C53E1252C27B0212C5937A007B0202C61B740212C59D
:20106600A7EEF0A3EFF07E007F0112C5F8900534E0FF7E0012C5D67DD17CDF740312C53E8E
:201086001252C27B0212C593900534E05403FF740012C4D2740012C526700C7D327CE174B5
:2010A6000112C53E1252C2740012C526B4010C7D167CDD740112C53E1252C2740012C526AF
:2010C600B4020C7D2E7CE0740112C53E1252C2740012C526B4030C7D087CDC740112C53EF6
:2010E6001252C2900534E030E20E7D9B7CD8740112C53E1252C2800C7D837CDC740112C5AF
:201106003E1252C27F357E0512C5D67D677CDC740312C53E1252C27B0212C5937F437E0567
:2011260012C5D67D777CD9740312C53E1252C27B0212C593900550E0FEA3E0FF12C5D67DAB
:20114600027CDA740312C53E1252C27B0212C5937DC87CDD740112C53E1252C2900552E083
:20116600FEA3E0FF12C5D67DE87CE0740312C53E1252C27B0212C5937FFC7E0412C5D67DBB
:20118600677CE0740312C53E1252C27B0212C5937F087E0512C5D67D837CE0740312C53E4E
:2011A6001252C27B0212C5937F147E0512C5D67D537CE1740312C53E1252C27B0212C59393
:2011C6007A007B0302C61B740212C5A7EEF0A3EFF07DEE7CDC740012C53E1252C27A007B73
:2011E6000202C61B740612C5A7EEF0A3EFF0A3ECF0A3EDF0A3EAF0A3EBF0740412C53E1213
:20120600C5D6740412C53E12C5D67D117CE0740412C53E1252C27B0412C593740612C53EDE
:20122600EF2467F582EE3400F583E0FEA3E0FF12C5D6740812C53EEF2479F582EE3400F565
:2012460083E0FEA3E0FF12C5D6740A12C53EEF2475F582EE3400F583E0FEA3E0FF12C5D6BF
:20126600740C12C53EEF2477F582EE3400F583E0FEA3E0FF12C5D6740E12C53EEF2473F519
:2012860082EE3400F583E0FEA3E0FF12C5D6741012C53E12B4F8FF7E0012C5D6741212C541
:2012A6003EEF2462F582EE3400F583E0FF7E0012C5D67D7E7CDB740E12C53E1252C27B0EC2
:2012C60012C593740612C53EEF247BF582EE3400F583E0FEA3E0FF12C5D6740812C53EEFE3
:2012E600246FF582EE3400F583E0FEA3E0FF12C5D6740A12C53EEF246DF582EE3400F58313
:20130600E0FEA3E0FF12C5D6740C12C53EEF247DF582EE3400F583E0FEA3E0FF12C5D67403
:201326000E12C53EEF2465F582EE3400F583E0FEA3E0FF12C5D67DE57CDB740A12C53E1290
:2013460052C27B0A12C5937D1A7C00740612C53EEF2465FFEE3400FE12C1E87A007B060293
:20136600C61B740212C5A7EEF0A3EFF07E007F0512C5F87FE37E03740012C4EC7DB67CD7C2
:20138600740512C53E1252C27D937CD9740512C53E1252C27A00AF02740412C4D202143ADF
:2013A600740012C53EEF2404F582EE3400F583E0FEA3E0FF740212C4EC740212C53E12C57C
:2013C600D6740212C53E8F828E83E0FAA3E0FB7D7B7CDF740712C53E1211EA7B0212C59355
:2013E600740012C53EEF2402F582EE3400F583E0FEA3E0FF740212C4EC740212C53E12C53E
:20140600D6740212C53E8F828E83E0FAA3E0FB7D5E7CDB740712C53E1211EA7B0212C59335
:20142600740012C5767F067E0012C67B740412C576E004F0740412C52624FC40030213A663
:201446007A007B0702C61B740312C5A7EEF0A3EFF0A3EDF07E007F0612C5F8740612C53E71
:20146600EF2405F582EE3400F583E024CE502D7D977CD8740612C53EEF2402F582EE340049
:20148600F583E0FEA3E0FF1252C2740612C53EEF2405F582EE3400F5837400F0740812C5D9
:2014A600266408600D740812C526B47F028003021545740612C53EEF2405F582EE3400F565
:2014C60083E0605F740612C53EEF2405F582EE3400F583E014F07D08740612C53EEF24021F
:2014E600F582EE3400F583E0FEA3E0FF124A747D20740612C53EEF2402F582EE3400F58353
:20150600E0FEA3E0FF124A747D08740612C53EEF2402F582EE3400F583E0FEA3E0FF124A9F
:201526007480197D07740612C53EEF2402F582EE3400F583E0FEA3E0FF124A74021727747B
:201546000812C526B40D0280030216CA740612C53EEF2405F582EE3400F583E0FA7406123A
:20156600C53EEF240CFFEE3400FE8F828E83EA12C6C87400F0740612C53EEF240CFFEE3445
:2015860000FE12172E7F817ED6740012C4EC021626740012C53E8F828E83E493FC74019302
:2015A600FD900222E0FEA3E0FF12BF8A7066740412C58A740212C4EC740012C53EEF240234
:2015C600F582EE3400F583E493FA740193FB740212C53E8F828E83EAF0EBA3F0740212C52E
:2015E6003E8F828E83E0FAA3E0FBEB4A6024740412C53EAA06AB07740612C53EEF2402F5EC
:2016060082EE3400F583E0FEA3E0FF8B828A8312C6C6802F740012C5767F067E0012C67BCA
:20162600900222E0FAA3E0FBEB4A6017740012C53E8F828E83E493FA740193FBEB4A600335
:20164600021597900222E0FAA3E0FBEB4A602F740012C53E8F828E83E493FA740193FBEBFC
:201666004A701B7D977CD8740612C53EEF2402F582EE3400F583E0FEA3E0FF1252C290015B
:20168600E6E0FB7A00EB2401FFEA3400FE12C5D67DAC7CDC740812C53EEF2402F582EE3471
:2016A60000F583E0FEA3E0FF1252C27B0212C593740612C53EEF2405F582EE3400F5837413
:2016C60000F0805D740812C526FA740612C53EEF2405F582EE3400F583E0FB04F0EBFB74E3
:2016E6000612C53EEF240CFFEE3400FE8F828E83EB12C6C8EAF0740812C526FF7E0012C537
:20170600D67D627CDB740812C53EEF2402F582EE3400F583E0FEA3E0FF1252C27B0212C526
:20172600937A007B0902C61B740212C5A7EEF0A3EFF07E007F0512C5F8740512C53E12BDAD
:201746007F740412C4D27A00AF02740012C4D28026740012C52690019012C6D1E4F0A3F055
:20176600740012C52690022212C6D1E4F0A3F0740012C576E004F0740012C52624FB50D1E8
:201786009001BC7400F07A01AF02740312C4D2740512C53E740112C4EC7A00AF02740012D1
:2017A600C4D28029740112C53E8F828E83E0B4200C740112C53E8F828E837400F0740012E2
:2017C600C576E004F0740112C57612C6F7740012C526FA740412C526FBEAC39B40C67405C1
:2017E60012C53E740112C4EC7A00AF02740012C4D28068740112C53E8F828E83E0700B7AE7
:2018060001AF02740312C4D28041740312C526603A740112C53E12C0579001BCE090019021
:2018260012C6D1EEF0EFA3F0740112C53E9001BCE090022212C6D1EEF0EFA3F09001BCE0F8
:2018460004F07A00AF02740312C4D2740012C576E004F0740112C57612C6F7740012C526AD
:20186600FA740412C526FBEAC39B50030217F97A007B0702C61B121C8D081CF3091E1A0A4F
:2018860020C61421BE1B220604224E0B22D606238D05247A18247A0C24840325FC0F31EF99
:2018A6001036B511381F740212C5A7EEF0A3EFF07E007FE112C5F874E112C53EEF2408F544
:2018C60082EE3400F583E024E0401974E112C53EEF2408F582EE3400F583E090093712C68B
:2018E600D112C6F774E112C53EEF2407F582EE3400F583E09001E6FAE0FD7C00ED2420FDD5
:20190600EC3400FCEA6D60030219ABEC60030219AB7D577C00740212C58A12C1E874E112C7
:20192600C53EEF2406F582EE3400F583E0FF740512C4D274E112C53EEF2407F582EE340057
:20194600F583E0FF740612C4D274E112C53EEF2408F582EE3400F583E0FF740312C4D27400
:20196600E112C53EEF240AF582EE3400F583E0FF740412C4D2740412C526FB7A0074E112ED
:20198600C53EEF240CFDEE3400FC740712C58A12C20C740212C58AAD07AC067FD77E051220
:2019A600AA390238EA74E112C53EEF2407F582EE3400F583E09001E6FAE0FD7C00ED24309A
:2019C600FDEC3400FCEA6D6003021A6CEC6003021A6C7D577C00740212C58A12C1E874E198
:2019E60012C53EEF2406F582EE3400F583E0FF740512C4D274E112C53EEF2407F582EE3485
:201A060000F583E0FF740612C4D274E112C53EEF2408F582EE3400F583E0FF740312C4D2B3
:201A260074E112C53EEF240AF582EE3400F583E0FF740412C4D2740412C526FB7A0074E1CA
:201A460012C53EEF240CFDEE3400FC740712C58A12C20C740212C58AAD07AC067F547E07E0
:201A660012AA390238EA74E112C53E8F828E83E0FAA3E0FBBB10028003021B20BA04028096
:201A860003021B2074E112C53EEF2407F582EE3400F583E09001E6FAE0FD7C00ED2410FDA3
:201AA600EC3400FCEA6D7003EC606F7D577C007F297E0312C1E89001E6E090032C2420F001
:201AC60074E112C53EEF2407F582EE3400F583E090032DF074E112C53EEF2408F582EE34BD
:201AE60000F583E090032AF074E112C53EEF240AF582EE3400F583E090032BF090032BE017
:201B0600FB7A0074E112C53EEF240CFDEE3400FC7F2E7E0312C20C0238EA74E112C53E8F7B
:201B2600828E83E0FAA3E0FBBB58028003021BD4BA05028003021BD474E112C53EEF240772
:201B4600F582EE3400F583E09001E6FAE0FD7C00ED2410FDEC3400FCEA6D7003EC606F7D88
:201B6600577C007F527E0212C1E89001E6E09002552430F074E112C53EEF2407F582EE34E1
:201B860000F583E0900256F074E112C53EEF2408F582EE3400F583E0900253F074E112C598
:201BA6003EEF240AF582EE3400F583E0900254F0900254E0FB7A0074E112C53EEF240CFD3C
:201BC600EE3400FC7F577E0212C20C0238EA74E112C53EEF2407F582EE3400F583E0900181
:201BE600E6FAE0FD7C00ED2410FDEC3400FCEA6D701EEC701B74E112C53E8F828E83E0FAAA
:201C0600A3E0FBEB247DF582EA3400F58312C6F774E112C53EEF2407F582EE3400F583E063
:201C260030E71B74E112C53E8F828E83E0FAA3E0FBEB247BF582EA3400F58312C6F774E1CD
:201C460012C53EEF2406F582EE3400F583E024E0401974E112C53EEF2406F582EE3400F5F1
:201C660083E090039012C6D112C6F774E112C53EEF2408F582EE3400F583E090187C75F061
:201C86001012C68D0238EA74E112C53EEF2407F582EE3400F583E09001E6FAE0FD7C00ED79
:201CA6002410FDEC3400FCEA6D7003EC60030238EA900992E4F0A3F074E112C53EEF240C79
:201CC600FFEE3400FE74DF12C4EC74DF12C53E8F828E83E0FAA3E0FB74F96B700574436A7A
:201CE60060030238EA7F01125CCD0238EA74E112C53EEF2407F582EE3400F583E09001E68C
:201D0600FAE0FD7C00ED2410FDEC3400FCEA6D7003EC60030238EA900992E4F0A3F074E10C
:201D260012C53EEF240CFFEE3400FE747712C4EC747712C53EEF2401F582EE3400F583E098
:201D4600FF747F12C4D2747712C53EEF2402F582EE3400F583E0FF748012C4D2747712C580
:201D66003E8F828E83E030E034747712C53EEF240BF582EE3400F583E012C5BE747812C572
:201D86003EEF2403FBEE3400FA748112C526FD748012C526FF125E1D7B0112C59374771283
:201DA600C53E8F828E83E030E10F748012C526FD747F12C526FF12605E747712C53E8F823A
:201DC6008E83E030E24B7F9A7E0412C5D67B927A04748212C526FD748112C526FF125F5E2C
:201DE6007B0212C59390048F7408F0747F12C526900490F0748012C526900491F074E112F6
:201E0600C53EEF2406F582EE3400F583E0900936F00238EA74E112C53EEF2407F582EE34AF
:201E260000F583E09001E6FAE0FD7C00ED2410FDEC3400FCEA6D7003EC60030238EA90096A
:201E460092E4F0A3F074E112C53EEF240CFFEE3400FE747912C4EC90024DE4F0A3F07479F9
:201E660012C53E8F828E83E020E003021FA3900915E064FF60030238EA900916E064FF60B4
:201E8600030238EA747912C53EEF2402F582EE3400F583E0900918F080417FC17E0112C515
:201EA600D67BB47A01900918E0FD747B12C53EEF2401F582EE3400F583E0FF125F5E7B02BA
:201EC60012C5939001B8E0FAA3E0FBBBFF05BAFF028002800E900918E004F0900918E0242D
:201EE600EC50B7900918E024EC50030238EA747912C53EEF2401F582EE3400F583E0900931
:201F060015F0900A10E4F0A3F09001B8E0FCA3E0FD7F0A7E0012C713900A0EEEF0EFA3F005
:201F26009001B6E0FCA3E0FD7F0A7E0012C713AB07AA069001B4E0FCA3E0FD7F0A7E0012E9
:201F4600C713EE3395E0FDFC1265EC604A9001BBE030E0077F0612A02B80057F06129EF4B2
:201F66009001BBE030E2077F0412A02B80057F04129EF49001BBE030E30512000E80031211
:201F8600A1569001BBE030E4077F0512A02B80057F05129EF48003126B590238EA74791273
:201FA600C53E8F828E83E030E12C900915E0B4FF030238EA90024FE030E30F7D3A7CDD90EE
:201FC60001C9E0FEA3E0FF1252C290091574FFF012006A0238EA747912C53E8F828E83E0F6
:201FE60030E22D900915E030E7030238EA12006A90024FE030E30F7DBA7CD89001C9E0FEAE
:20200600A3E0FF1252C2900915E04480F00238EA747912C53E8F828E83E020E3030220C3BD
:20202600900915E0B4FF030238EA900915E020E7030238EA900915E0547FF0900554E0FA62
:20204600A3E0FB9001B4E0FCA3E0FD7F0A7E0012C713EF2BFBEE3AFAAF03AE029001BDE49D
:20206600FDFC12CB4B900556E0FAA3E0FB9001B6E0FCA3E0FD7F0A7E0012C71390018CEB58
:202086002FCA3EF0A3EAF09001B8E0FAA3E0FB90018EEAF0EBA3F09001E97401F0900220ED
:2020A600E4F0A3F090024FE030E30F7D147CDE9001C9E0FEA3E0FF1252C20238EA0238EABD
:2020C60074E112C53EEF2407F582EE3400F583E09001E6FAE0FD7C00ED2410FDEC3400FC81
:2020E600EA6D7003EC60030238EA900992E4F0A3F074E112C53EEF240CFFEE3400FE74816E
:2021060012C4EC7D167C00745F12C58A12C1E8748112C53E8F828E83E0FEA3E0FF74661281
:20212600C4EC748112C53EEF2402F582EE3400F583E0FEA3E0FF746812C4EC748112C53EB1
:20214600EF2404F582EE3400F583E0FEA3E0FF746A12C4EC748112C53EEF2406F582EE3495
:2021660000F583E0FF746512C4D29002A9E0FF746412C4D29001E6E02410FF746212C4D2DF
:202186009001E6E02440FF746312C4D27A11AF02746012C4D27A0EAF02746112C4D2745FBF
:2021A60012C58AAD07AC067FD57E0612AA3990018BE04401F00238EA74E112C53EEF2407AC
:2021C600F582EE3400F583E09001E6FAE0FD7C00ED2410FDEC3400FCEA6D7003EC600302E9
:2021E60038EA900992E4F0A3F074E112C53EEF2406F582EE3400F583E0900978F00238EA8C
:2022060074E112C53EEF2407F582EE3400F583E09001E6FAE0FD7C00ED2410FDEC3400FC3F
:20222600EA6D7003EC60030238EA900992E4F0A3F074E112C53EEF2406F582EE3400F58335
:20224600E090040EF00238EA74E112C53EEF2406F582EE3400F583E0900326C39410F090CE
:2022660001E6E075F064A4900990ACF0FDED2488FAEC3413F0A3EAF074E112C53EEF2407AB
:20228600F582EE3400F583E09001E6FAE0FD7C00ED2410FDEC3400FCEA6D7003EC60030228
:2022A60038EA9001E6E070229003267400F09009927400F0740FA3F0900990E4F0A3F0902B
:2022C60001CDE0FF1244ED0238EA12420E0238EA74E112C53EEF2407F582EE3400F583E0E9
:2022E6009001E6FAE0FD7C00ED2410FDEC3400FCEA6D7003EC60030238EA74E112C53EEF3E
:20230600240CFFEE3400FE748312C4EC748312C53E8F828E83E030E05E7B0C7A0074831229
:20232600C53EEF2401FDEE3400FC7FFC7E0412C20C7B0C7A00748312C53EEF240DFDEE343C
:2023460000FC7F087E0512C20C7B0C7A00748312C53EEF2419FDEE3400FC7F147E0512C253
:202366000C9005077400F09005137400F090051F7400F0FF125CCD900992E4F0A3F09004C7
:202386000E7480F00238EA74E112C53EEF2407F582EE3400F583E09001E6FAE0FD7C00EDF5
:2023A6002410FDEC3400FCEA6D7003EC60030238EA74E112C53EEF240CFFEE3400FE74D69B
:2023C60012C4EC74D612C53E8F828E83E030E04D74D612C53E7D337C058F828E837E007FC8
:2023E6002512C8757B517A007D007CF0748512C58A125C1E74D012C53E900554EEF0EFA39C
:20240600F074D212C53E900556EEF0EFA3F09005527400F074C9A3F07F00125CCD74D612EF
:20242600C53E8F828E83E030E1407B517A007D007CF0748512C58A125C1E74CC12C53E9046
:202446000550EEF0EFA3F0900207E0FAA3E0FB900554EAF0EBA3F0900209E0FCA3E0FD9008
:202466000556ECF0EDA3F0120576900992E4F0A3F00238EA900992E4F0A3F00238EA90090D
:2024860092E4F0A3F074E112C53EEF2407F582EE3400F583E09001E6FAE0FD7C00ED2410DD
:2024A600FDEC3400FCEA6D7003EC60030238EA900915E064FF601F90024FE030E30F7D7D73
:2024C6007CDE9001C9E0FEA3E0FF1252C290091574FFF012006A74E112C53EEF240CFFEEB9
:2024E6003400FE747512C4EC747512C53EEF2406F582EE3400F583A3E030E06C747512C512
:202506003EEF2402F582EE3400F583E0FCA3E0FD7F0A7E0012C713C006C007747512C53E77
:20252600EF2404F582EE3400F583E0FCA3E0FD7F0A7E0012C713900A22EEF0EFA3F0747519
:2025460012C53E8F828E83E0FEA3E0FFEE3395E0FDFC12CA6EE4FCFDFE7F0A12C9CAD00329
:20256600D00212681D0225F99001C27400F0747512C53EEF2402F582EE3400F583E0FCA372
:20258600E0FD7F0A7E0012C713C006C007747512C53EEF2406F582EE3400F583E0FAA3E053
:2025A600FB900A10EAF0EBA3F0747512C53EEF2404F582EE3400F583E0FCA3E0FD7F0A7E8F
:2025C6000012C713900A0EEEF0EFA3F0747512C53E8F828E83E0FEA3E0FFEE3395E0FDFCF2
:2025E60012CA6EE4FCFDFE7F0A12C9CAD003D0021265EC0238EA7A00AF0274D812C4D274C3
:20260600E112C53EEF240CFFEE3400FE740012C4EC74E112C53EEF240AF582EE3400F583B2
:20262600E024FA50097A01AF0274D812C4D2900992E4F0A3F090024FE020E0030226CC745F
:20264600E112C53EEF2406F582EE3400F583E0FB7A00EB2401FBEA3400FA90021DE06B7072
:2026660065EA7062740012C53EEF2402F582EE3400F583E0FF7E0012C5D6740212C53EEF00
:202686002401F582EE3400F583E0FF7E0012C5D6740412C53E8F828E83E0FF7E0012C5D63B
:2026A60090021DE0FB7A00EB2401FFEA3400FE12C5D67D277CDF9001C9E0FEA3E0FF12521B
:2026C600C27B0812C59374E112C53EEF2407F582EE3400F583E09001E6FAE0FD7C00ED24F5
:2026E60010FDEC3400FCEA6D7003EC60030238EA740012C53EEF2403F582EE3400F583E0DE
:2027060054076019740012C53EEF2403F582EE3400F583E05407FA9001D0E04AF074E11218
:20272600C53EEF2406F582EE3400F583E05430601474E112C53EEF2406F582EE3400F583FA
:20274600E09001D9F074E112C53EEF2406F582EE3400F583E054306021740012C53EEF2424
:2027660004F582EE3400F583E030E6089002AC7401F080069002AC7400F0740012C53EEFFD
:202786002403F582EE3400F583E030E3030238EA900916E054F070030228BA74E112C53E4D
:2027A600EF2406F582EE3400F583E054F060030228BA740012C53E8F828E83E02488506196
:2027C600740012C53E8F828E83E024774053740012C53EEF2401F582EE3400F583E0248800
:2027E600503F740012C53EEF2401F582EE3400F583E02477402B740012C53EEF2402F5829B
:20280600EE3400F583E024885017740012C53EEF2402F582EE3400F583E02477400302288E
:20282600BA90024FE030E36E740012C53EEF2402F582EE3400F583E0FF7E0012C5D6740267
:2028460012C53EEF2401F582EE3400F583E0FF7E0012C5D6740412C53E8F828E83E0FF7E22
:202866000012C5D674E712C53EEF2406F582EE3400F583E0FB7A00EB2401FFEA3400FE1279
:20288600C5D67DA97CDE9001C9E0FEA3E0FF1252C27B0812C59374E112C53EEF2406F58250
:2028A600EE3400F583E0900916F090098E740BF074B8A3F074E112C53EEF2406F582EE3488
:2028C60000F583E0900916FAE06A600F90098EE0FAA3E0FBEB4A60030238EA90098EE0FAFC
:2028E600A3E0FBEB4A700690091674FFF09001F5E060030238EA740012C53E8F828E83E01F
:202906002488505E740012C53E8F828E83E024774050740012C53EEF2401F582EE3400F576
:2029260083E02488503C740012C53EEF2401F582EE3400F583E024774028740012C53EEFED
:202946002402F582EE3400F583E024885014740012C53EEF2402F582EE3400F583E0247720
:20296600503A74E112C53EEF2406F582EE3400F583E0900916F090098E740BF074B8A3F05F
:20298600900550E0FAA3E0FB90024DEAF0EBA3F09001E97400F090091574FFF09001E9E074
:2029A60070369001C2E07030740012C53EEF2402F582EE3400F583E0FB740012C53EEF2472
:2029C60001F582EE3400F583E0FD740012C53E8F828E83E0FF1295FF740012C53EEF240234
:2029E600F582EE3400F583E02494402574E112C53EEF2406F582EE3400F583E0900916F0B0
:202A060090098E740BF074B8A3F07F0312A02B80057F03129EF4740012C53EEF2402F5823C
:202A2600EE3400F583E0246B502574E112C53EEF2406F582EE3400F583E0900916F0900966
:202A46008E740BF074B8A3F07F0212A02B80057F02129EF4740012C53EEF2404F582EE3473
:202A660000F583E030E35374E112C53EEF2406F582EE3400F583E0900916F090098E740BD9
:202A8600F074B8A3F0900550E0FAA3E0FB90024DEAF0EBA3F074E112C53EEF2406F582EE25
:202AA6003400F583E05430600512000E800A7F0012A02B7F0112A02B8015900986E0FAA307
:202AC600E0FBEB249CEA34FF40057F01129EF4740012C53EEF2404F582EE3400F583E03023
:202AE600E43374E112C53EEF2406F582EE3400F583E0900916F090098E740BF074B8A3F051
:202B0600900550E0FAA3E0FB90024DEAF0EBA3F07F00129EF4740012C53EEF2404F582EE13
:202B26003400F583E030E03374E112C53EEF2406F582EE3400F583E0900916F090098E7412
:202B46000BF074B8A3F0900550E0FAA3E0FB90024DEAF0EBA3F07F0612A02B740012C53E56
:202B6600EF2404F582EE3400F583E030E13374E112C53EEF2406F582EE3400F583E09009F6
:202B860016F090098E740BF074B8A3F0900550E0FAA3E0FB90024DEAF0EBA3F07F06129E2B
:202BA600F4740012C53EEF2403F582EE3400F583E030E43374E112C53EEF2406F582EE3428
:202BC60000F583E0900916F090098E740BF074B8A3F0900550E0FAA3E0FB90024DEAF0EBC2
:202BE600A3F07F0412A02B740012C53EEF2403F582EE3400F583E030E53374E112C53EEFAB
:202C06002406F582EE3400F583E0900916F090098E740BF074B8A3F0900550E0FAA3E0FB62
:202C260090024DEAF0EBA3F07F04129EF4740012C53EEF2403F582EE3400F583E030E63357
:202C460074E112C53EEF2406F582EE3400F583E0900916F090098E740BF074B8A3F0900571
:202C660050E0FAA3E0FB90024DEAF0EBA3F07F0512A02B740012C53EEF2403F582EE3400D6
:202C8600F583E030E73374E112C53EEF2406F582EE3400F583E0900916F090098E740BF0E3
:202CA60074B8A3F0900550E0FAA3E0FB90024DEAF0EBA3F07F05129EF4740012C53EEF2417
:202CC60004F582EE3400F583E030E22174E112C53EEF2406F582EE3400F583E0900916F0B3
:202CE60090098E740BF074B8A3F012002674D812C526B4010280030231EC740012C53EEF27
:202D06002405F582EE3400F583E030E13374E112C53EEF2406F582EE3400F583E09009162C
:202D2600F090098E740BF074B8A3F0900550E0FAA3E0FB90024DEAF0EBA3F07F07129EF4AA
:202D4600740012C53EEF2405F582EE3400F583E030E03374E112C53EEF2406F582EE34007C
:202D6600F583E0900916F090098E740BF074B8A3F0900550E0FAA3E0FB90024DEAF0EBA37D
:202D8600F07F0712A02B740012C53EEF2405F582EE3400F583E030E33374E112C53EEF2485
:202DA60006F582EE3400F583E0900916F090098E740BF074B8A3F0900550E0FAA3E0FB9055
:202DC600024DEAF0EBA3F07F08129EF4740012C53EEF2405F582EE3400F583E030E23374D0
:202DE600E112C53EEF2406F582EE3400F583E0900916F090098E740BF074B8A3F0900550F4
:202E0600E0FAA3E0FB90024DEAF0EBA3F07F0812A02B740012C53EEF2405F582EE3400F58A
:202E260083E030E53374E112C53EEF2406F582EE3400F583E0900916F090098E740BF074C4
:202E4600B8A3F0900550E0FAA3E0FB90024DEAF0EBA3F07F09129EF4740012C53EEF2405E0
:202E6600F582EE3400F583E030E43374E112C53EEF2406F582EE3400F583E0900916F09071
:202E8600098E740BF074B8A3F0900550E0FAA3E0FB90024DEAF0EBA3F07F0912A02B74001A
:202EA60012C53EEF2405F582EE3400F583E030E73374E112C53EEF2406F582EE3400F58310
:202EC600E0900916F090098E740BF074B8A3F0900550E0FAA3E0FB90024DEAF0EBA3F07F25
:202EE6000A129EF4740012C53EEF2405F582EE3400F583E030E63374E112C53EEF2406F5CB
:202F060082EE3400F583E0900916F090098E740BF074B8A3F0900550E0FAA3E0FB90024D9F
:202F2600EAF0EBA3F07F0A12A02B740012C53EEF2406F582EE3400F583E030E13374E1128F
:202F4600C53EEF2406F582EE3400F583E0900916F090098E740BF074B8A3F0900550E0FAAB
:202F6600A3E0FB90024DEAF0EBA3F07F0B129EF4740012C53EEF2406F582EE3400F583E0D5
:202F860030E03374E112C53EEF2406F582EE3400F583E0900916F090098E740BF074B8A370
:202FA600F0900550E0FAA3E0FB90024DEAF0EBA3F07F0B12A02B740012C53EEF2406F58227
:202FC600EE3400F583E030E33374E112C53EEF2406F582EE3400F583E0900916F090098EF1
:202FE600740BF074B8A3F0900550E0FAA3E0FB90024DEAF0EBA3F07F0C129EF4740012C5AF
:203006003EEF2406F582EE3400F583E030E23374E112C53EEF2406F582EE3400F583E09019
:203026000916F090098E740BF074B8A3F0900550E0FAA3E0FB90024DEAF0EBA3F07F0C1215
:20304600A02B740012C53EEF2406F582EE3400F583E030E53374E112C53EEF2406F582EEDC
:203066003400F583E0900916F090098E740BF074B8A3F0900550E0FAA3E0FB90024DEAF0D4
:20308600EBA3F07F0D129EF4740012C53EEF2406F582EE3400F583E030E43374E112C53E38
:2030A600EF2406F582EE3400F583E0900916F090098E740BF074B8A3F0900550E0FAA3E0CA
:2030C600FB90024DEAF0EBA3F07F0D12A02B740012C53EEF2406F582EE3400F583E030E7A5
:2030E6003374E112C53EEF2406F582EE3400F583E0900916F090098E740BF074B8A3F0909F
:203106000550E0FAA3E0FB90024DEAF0EBA3F07F0E129EF4740012C53EEF2406F582EE3459
:2031260000F583E030E63374E112C53EEF2406F582EE3400F583E0900916F090098E740B2F
:20314600F074B8A3F0900550E0FAA3E0FB90024DEAF0EBA3F07F0E12A02B740012C53EEF64
:203166002407F582EE3400F583E030E13374E112C53EEF2406F582EE3400F583E0900916C6
:20318600F090098E740BF074B8A3F0900550E0FAA3E0FB90024DEAF0EBA3F07F0F129EF43E
:2031A600740012C53EEF2407F582EE3400F583E030E03374E112C53EEF2406F582EE340016
:2031C600F583E0900916F090098E740BF074B8A3F0900550E0FAA3E0FB90024DEAF0EBA319
:2031E600F07F0F12A02B0238EA9009987407F074D0A3F090091AE030E00E9001D0E04401A0
:20320600F090091AE054FEF074E112C53EEF240CFFEE3400FE747B12C4EC747B12C53E8FF7
:20322600828E83E0FAA3E0FB900207EAF0EBA3F0747B12C53EEF2402F582EE3400F583E0A2
:20324600FAA3E0FB900209EAF0EBA3F0747B12C53EEF2406F582EE3400F583E0FAA3E0FB77
:20326600900219EAF0EBA3F0747B12C53EEF2408F582EE3400F583E0FAA3E0FB90021BEA26
:20328600F0EBA3F090091AE020E00330E113900219E0FAA3E0FB900911EAF0EBA3F00233C6
:2032A600879002A9E0B40202800302334A900207E0FEA3E0FFE4FDFC12CA6E900554E0FEC5
:2032C600A3E0FFE4FDFC12C9B5745B12C506745B12C557EF24AFEE34B9ED34FFEC6480348F
:2032E6007F5017745B12C55712CA6EE4FCFD7E8C7FA012C9B5745B12C506745B12C557EF6D
:203306002450EE3446ED3400EC648034804017745B12C55712CA6EE4FCFD7E8C7FA012C9A7
:203326008D745B12C506745B12C55712CA6EE4FCFDFE7F0A12CAE212CA62900911EEF0EF30
:20334600A3F0803D900207E0FEA3E0FFE4FDFC12CA6E900554E0FEA3E0FFE4FDFC12C9B541
:20336600745B12C506745B12C55712CA6EE4FCFDFE7F0A12CAE212CA62900911EEF0EFA3DA
:20338600F090091AE020E00330E11290021BE0FAA3E0FB900913EAF0EBA3F0803D9002091D
:2033A600E0FEA3E0FFE4FDFC12CA6E900556E0FEA3E0FFE4FDFC12C9B574D912C50674D951
:2033C60012C55712CA6EE4FCFDFE7F0A12CAE212CA62900913EEF0EFA3F0747B12C53EEF10
:2033E6002404F582EE3400F583E0FAA3E0FB90020BEAF0EBA3F0900917E030E23F900911B6
:20340600E0FAA3E0FBEB240FEA648034805024EB24F0EA6480347F401AA3E0FCA3E0FDED74
:20342600240FEC64803480500AED24F0EC6480347F5007900917E054FBF0803D900911E084
:20344600FAA3E0FBEB2404EA64803480502BEB24FBEA6480347F4021A3E0FCA3E0FDED24E2
:2034660004EC648034805011ED24FBEC6480347F4007900917E04404F090091AE05478FF61
:2034860074DD12C4D290091AE05487F0900207E0FAA3E0FBEB249CEA34FF400F9002A9E0AC
:2034A6006402600790091AE04408F0900207E0FAA3E0FB90020DE0FEA3E0FF7D647C00120B
:2034C600C70BC3EF9BEE9A500F9002A9E06402600790091AE04410F0900209E0FAA3E0FB2E
:2034E600EB249CEA34FF400790091AE04420F0900209E0FAA3E0FB90020FE0FEA3E0FF7D5F
:20350600647C0012C70BC3EF9BEE9A500790091AE04440F090091AE05478FF74DE12C4D256
:2035260074DD12C526FA74DE12C5266A60079001D0E04401F0747B12C53EEF240AF582EE21
:203546003400F583E09001F4FAE06A70030235F7747B12C53EEF240AF582EE3400F583E05D
:203566009001F4F090091BE05403F090091AE054FDF09001F4E030E21D90091BE04408F0BD
:2035860090024FE030E30F7D407CDB9001C9E0FEA3E0FF1252C29001F4E030E30790091B1B
:2035A600E04404F09001F4E030E00790091AE04402F09001F4E030E40790091BE04410F050
:2035C6009001F4E030E50790091BE04420F09001F4E030E60790091BE04440F09001F4E08D
:2035E60030E70790091BE04480F09001D0E04401F0126BBC12875290017BE004F09002074C
:20360600E0FAA3E0FB900189EAF0EBA3F0900209E0FCA3E0FD900327ECF0EDA3F090024FEC
:20362600E030E1429001E9E06002803A900209E0FEA3E0FF12C5D674DD12C53E12C5D69090
:203646000207E0FEA3E0FF12C5D6746312C53E12C5D67D4C7CDB9001C9E0FEA3E0FF125277
:20366600C27B0812C593900189E0FAA3E0FB9001C6EAF0EBA3F0900327E0FCA3E0FD9001CD
:20368600CEECF0EDA3F0900219E0FEA3E0FF9001E7EEF0EFA3F090021BE0FAA3E0FB90037F
:2036A60084EAF0EBA3F090017B7400F00238EA9009987407F074D0A3F09001D0E04401F0AB
:2036C60090091AE04401F074E112C53EEF240CFFEE3400FE745912C4EC745912C53EEF24F0
:2036E60008F582EE3400F583E0FD7C007F01129C52745912C53EEF2409F582EE3400F583C3
:20370600E0FD7C007F02129C52745912C53EEF240AF582EE3400F583E0FD7C007F03129C30
:2037260052745912C53EEF240BF582EE3400F583E0700790018BE054FEF0745912C53EEFBA
:20374600240BF582EE3400F583E09001F5F0745912C53E8F828E83E0FAA3E0FB900911EADD
:20376600F0EBA3F09002A9E0B4021E745912C53EEF2404F582EE3400F583E0FAA3E0FB90F4
:203786000913EAF0EBA3F0801C745912C53EEF2402F582EE3400F583E0FAA3E0FB90091307
:2037A600EAF0EBA3F090024FE030E16A745912C53EEF2406F582EE3400F583E0FEA3E0FF03
:2037C60012C5D6745B12C53EEF2404F582EE3400F583E0FEA3E0FF12C5D6745D12C53EEF48
:2037E6002402F582EE3400F583E0FEA3E0FF12C5D6745F12C53E8F828E83E0FEA3E0FF1203
:20380600C5D67D227CD89001C9E0FEA3E0FF1252C27B0812C5930238EA9009987407F07413
:20382600D0A3F074E112C53EEF240CFFEE3400FE747D12C4EC747D12C53EEF2402F582EE44
:203846003400F583E0FAA3E0FB90020DEAF0EBA3F0747D12C53EEF2404F582EE3400F58339
:20386600E0FAA3E0FB90020FEAF0EBA3F0747D12C53EEF2406F582EE3400F583E0FAA3E064
:20388600FB900211EAF0EBA3F0747D12C53EEF2408F582EE3400F583E0FAA3E0FB900213FD
:2038A600EAF0EBA3F0747D12C53EEF240AF582EE3400F583E0FAA3E0FB900215EAF0EBA30F
:2038C600F0747D12C53EEF240CF582EE3400F583E0FAA3E0FB900217EAF0EBA3F090018B47
:2038E600E054FDF07A007BE302C61B7E007F0412C5F87F017E00740012C4EC7A00AF027443
:203906000312C4D202414E740012C53E8F828E83E0FAA3E0FBEB2463F582EA3400F583E003
:20392600FAA3E0FB8B828A83E0FAA3E0FBEB144A7040740012C53E8F828E83E0FAA3E0FB9B
:20394600EB2462F582EA3400F5837400F0740012C53E8F828E83E0FAA3E0FBEB2463F58293
:20396600EA3400F583E0FAA3E0FB8B828A83E4F0A3F002411B740012C53E8F828E83E0FAEF
:20398600A3E0FBEB2462F582EA3400F583E06003023A4E740212C526B40230740012C53E76
:2039A600EF2409F582EE3400F5837400F0740012C53E8F828E83E0FAA3E0FBEB2462F58285
:2039C600EA3400F5837401F002411B740012C53EEF2404F582EE3400F583E0604D740212C2
:2039E600C526B4FF34740012C53EEF2409F582EE3400F5837400F090017C04F0740012C589
:203A06003E8F828E83E0FAA3E0FBEB2462F582EA3400F5837408F0800E740212C526FD748C
:203A26000012C53E12144D02411B740012C53E8F828E83E0FAA3E0FBEB2477F582EA34007C
:203A4600F58312C6F702411B740012C53E8F828E83E0FAA3E0FBEB2462F582EA3400F5833A
:203A6600E0B401028003023B21740212C52624FD405C740212C52624E35053740212C58AA4
:203A8600AD07AC06740012C53E8F828E83E0FEA3E0FF12B5C9740012C53E8F828E83E0FA9A
:203AA600A3E0FBEB2462F582EA3400F5837400F0740012C53E8F828E83E0FAA3E0FBEB248E
:203AC60079F582EA3400F58312C6F702411B740212C526FA740012C53EEF2409F582EE3482
:203AE60000F583E02AF0740212C526FA740012C53EEF2408F582EE3400F583EAF0740012CC
:203B0600C53E8F828E83E0FAA3E0FBEB2462F582EA3400F5837402F002411B740012C53E57
:203B26008F828E83E0FAA3E0FBEB2462F582EA3400F583E0B402028003023BFD740212C5E5
:203B460026FA740012C53EEF2409F582EE3400F583E02AF0740212C52624CE5053740212FF
:203B6600C58AAD07AC06740012C53E8F828E83E0FEA3E0FF12B5C9740012C53E8F828E8344
:203B8600E0FAA3E0FBEB2462F582EA3400F5837400F0740012C53E8F828E83E0FAA3E0FBE2
:203BA600EB2475F582EA3400F58312C6F702411B740212C526FA740012C53EEF240AF582B7
:203BC600EE3400F583EAF0740012C53EEF240BF582EE3400F5837400F0740012C53E8F82B5
:203BE6008E83E0FAA3E0FBEB2462F582EA3400F5837403F002411B740012C53E8F828E8368
:203C0600E0FAA3E0FBEB2462F582EA3400F583E0B4034D740212C526FA740012C53EEF24DB
:203C260009F582EE3400F583E02AF0740212C526FA740012C53EEF2406F582EE3400F5834A
:203C4600EAF0740012C53E8F828E83E0FAA3E0FBEB2462F582EA3400F5837404F002411B3D
:203C6600740012C53E8F828E83E0FAA3E0FBEB2462F582EA3400F583E0B404028003023D61
:203C860001740212C526FA740012C53EEF2409F582EE3400F583E02AF0740212C526FA741F
:203CA6000012C53EEF2407F582EE3400F583EAF0740012C53E8F828E83E0FAA3E0FBEB24D2
:203CC60062F582EA3400F5837405F0740012C53EEF240AF582EE3400F583E0701B7400125E
:203CE600C53E8F828E83E0FAA3E0FBEB2462F582EA3400F5837406F002411B740012C53E72
:203D06008F828E83E0FAA3E0FBEB2462F582EA3400F583E0B405028003023DAF740212C54C
:203D260026FA740012C53EEF2409F582EE3400F583E02AF0740212C526FA740012C53EEFC8
:203D4600240BF582EE3400F583E0FB04F0EBFB740012C53EEF240CFFEE3400FE8F828E837F
:203D6600EB12C6C8EAF0740012C53EEF240BF582EE3400F583E0FA740012C53EEF240AF5AB
:203D860082EE3400F583E0D39A501E740012C53E8F828E83E0FAA3E0FBEB2462F582EA343D
:203DA60000F5837406F002411B740012C53E8F828E83E0FAA3E0FBEB2462F582EA3400F5BF
:203DC60083E0B406028003023E5A740012C53EEF2409F582EE3400F583E0FA740212C5269E
:203DE6006A6053740212C58AAD07AC06740012C53E8F828E83E0FEA3E0FF12B5C974001242
:203E0600C53E8F828E83E0FAA3E0FBEB2462F582EA3400F5837400F0740012C53E8F828E15
:203E260083E0FAA3E0FBEB2475F582EA3400F58312C6F702411B740012C53E8F828E83E058
:203E4600FAA3E0FBEB2462F582EA3400F5837407F002411B740012C53E8F828E83E0FAA375
:203E6600E0FBEB2462F582EA3400F583E0B407028003024006740212C52664037003023FED
:203E86001E740212C58AAD07AC06740012C53E8F828E83E0FEA3E0FF12B5C9740012C53E9D
:203EA6008F828E83E0FAA3E0FBEB2462F582EA3400F5837400F0740012C53E8F828E83E015
:203EC600FAA3E0FBEB2479F582EA3400F58312C6F7740012C53E8F828E83E0FAA3E0FBEB12
:203EE6002479F582EA3400F583E0FAA3E0FBEB249BEA34FF501F740012C53E8F828E83E0F9
:203F0600FAA3E0FBEB2479F582EA3400F5837400F07464A3F002411B740012C53E8F828E39
:203F260083E0FEA3E0FF12B439740012C53E8F828E83E0FAA3E0FBBBD330BA072D74001264
:203F4600C53EEF2406F582EE3400F583E024E04019740012C53EEF2406F582EE3400F5833E
:203F6600E090022C12C6C87400F0740012C53E8F828E83E0FAA3E0FBEB2473F582EA34007F
:203F8600F58312C6F7740012C53E8F828E83E0FAA3E0FBBB101BBA04189001E6E04420FA60
:203FA600740012C53EEF2406F582EE3400F583EAF0740012C53E8F828E83E0FAA3E0FBBBB0
:203FC600581BBA05189001E6E04430FA740012C53EEF2406F582EE3400F583EAF0740012B9
:203FE600C53E1218AC740012C53E8F828E83E0FAA3E0FBEB2462F582EA3400F5837400F0FD
:20400600740012C53E8F828E83E0FAA3E0FBEB2462F582EA3400F583E0B4080280030241B5
:204026001B90017CE004F090017CE0B40244740212C526FA740012C53EEF2407F582EE34EE
:2040460000F583EAF0740212C526FA740012C53EEF2409F582EE3400F583E02AF074001265
:20406600C53EEF240BF582EE3400F5837400F002411990017CE024FD505490017CE024F98C
:20408600404C740212C526FA740012C53EEF240BF582EE3400F583E0FB04F0EBFB7400122E
:2040A600C53EEF240CFFEE3400FE8F828E83EB12C6C8EAF0740212C526FA740012C53EEF4D
:2040C6002409F582EE3400F583E02AF0804590017CE0B4073E740012C53EEF2409F582EEED
:2040E6003400F583E0FA740212C526FBEAB50308740012C53E124587740012C53E8F828E8D
:2041060083E0FAA3E0FBEB2462F582EA3400F5837400F08000740212C58AAD07AC067400AB
:2041260012C53E8F828E83E0FEA3E0FF12B3B0600302397B740012C5767F3E7E0012C67B05
:20414600740312C576E004F0740312C52624FC400302390D7A007B0402C61B7E007F59125E
:20416600C5F87D577C00740012C58A12C1E89001E6E02410FF740312C4D29001E6E0244038
:20418600FF740412C4D27A0EAF02740112C4D27A01AF02740212C4D290018BE0FF740512D4
:2041A600C4D2740012C58AAD07AC067FD57E0612AA399001DFE0702890091BE05402FF7416
:2041C6005712C4D2900998E0FAA3E0FBEB4A700990091BE04402F0800790091BE054FDF07D
:2041E60090091BE05402FF745812C4D2745712C526FA745812C5266A60079001D0E044017A
:20420600F07A007B5902C61B7E007F5712C5F89001E6E09002CF12C6D112C6F790032CE085
:2042260064FF60147D297C037F527E0812AA3990032C74FFF00244E6900255E064FF601444
:204246007D527C027F527E0812AA3990025574FFF00244E69001E6E02410FF740312C4D2A0
:204266007A80AF02740412C4D29001D0E020E0030243377B1F7A097D1E7C097F1C7E09123C
:2042860061B67B237A097D227C097F207E0912628590091FE0FA900923E02AF0900923E0B9
:2042A60024C4500B900922E004F0A3E024C4F090091EE0FA900922E02AF0900922E024C402
:2042C600500D90092012C6F7900922E024C4F090091CE0FEA3E0FF90092012C67B7B257A45
:2042E600007D117C09740512C58A12C20C7A18AF02740112C4D27A25AF02740212C4D2908D
:2043060001D9E064FF60199001D9E0FF740412C4D29001D974FFF09002ACE060030244E61E
:204326009001D0E054FEF090091BE054F6F00244D69001D0E020E10890040EE064FF606417
:2043460090040EE064FF601290040EE0FF740412C4D290040E74FFF080189001D9E064FF15
:2043660060109001D9E0FF740412C4D29001D974FFF07B317A007DFB7C04740512C58A1287
:20438600C20C7A0BAF02740112C4D27A31AF02740212C4D29001D0E054FDF090040E74FFE5
:2043A600F00244D69001D0E020E208900978E064FF605D900978E064FF600A900978E0FFE1
:2043C600740412C4D29001D0E030E2129001D9E05430600A9001D9E0FF740412C4D27B2511
:2043E6007A007D337C05740512C58A12C20C7A06AF02740112C4D27A25AF02740212C4D296
:204406009001D0E054FBF090097874FFF00244D6900936E064FF6035900936E0FF740412A7
:20442600C4D27B157A007D8F7C04740512C58A12C20C7A08AF02740112C4D27A15AF02748C
:204446000212C4D290093674FFF00244D69001C3E0B4013A9001D9E0FF740412C4D2900141
:20446600D974FFF07B317A007DFB7C04740512C58A12C20C7A0BAF02740112C4D27A31AF75
:2044860002740212C4D29001C37400F080427B087A007D117C09740512C58A12C20C7A0533
:2044A600AF02740112C4D27A08AF02740212C4D29001D9E064FF60189001D9E0FF740412DF
:2044C600C4D29001D974FFF09002ACE060028010740012C58AAD07AC067F527E0812AA39DC
:2044E6007A007B5702C61B740112C5A7EFF07E007F5712C5F89001E6E02410FF740312C4BB
:20450600D2745712C526FF740412C4D27A04AF02740112C4D27A00AF02740212C4D27400D3
:2045260012C58AAD07AC067F527E0812AA39745712C52690022C12C6C8E090013EFAE0FBB8
:20454600EAC39B500E745712C52690022C12C6C8E004F0745712C52690022C12C6C8E0901F
:20456600013EFAE0C39A501290013EE0FA745712C52690022C12C6C8EAF07A007B5802C69F
:204586001B740212C5A7EEF0A3EFF07E007F1612C5F87D087C00740012C58A12C1E87A7F3A
:2045A600AF02740012C4D27A7FAF02740112C4D27A7FAF02740212C4D27D577C007F297E23
:2045C6000312C1E89001E6E090032C2420F0741612C53EEF2407F582EE3400F583E024FE01
:2045E600400C9001E6E090032D2410F08014741612C53EEF2407F582EE3400F583E090035D
:204606002DF090032A7403F0A37408F0741612C53EEF240DF582EE3400F583E030E003027F
:20462600473E741612C53EEF240DF582EE3400F583E030E61290017FE075F01FA4249EFF3E
:20464600740212C4D28028741612C53EEF240DF582EE3400F583E030E51590017FE075F05F
:204666001FA4241FFAC3747F9AFF740212C4D2741612C53EEF240DF582EE3400F583E030E7
:20468600E421741612C53EEF240FF582EE3400F583E0543F25E0FAC3747F9AFF740112C431
:2046A600D2802F741612C53EEF240DF582EE3400F583E030E31C741612C53EEF240FF5825C
:2046C600EE3400F583E0543F25E0247FFF740112C4D2741612C53EEF240DF582EE3400F5B6
:2046E60083E030E221741612C53EEF240EF582EE3400F583E0543F25E0FAC3747F9AFF7418
:204706000012C4D2802F741612C53EEF240DF582EE3400F583E030E11C741612C53EEF24AD
:204726000EF582EE3400F583E0543F25E0247FFF740012C4D20249C6741612C53EEF240D4E
:20474600F582EE3400F583E024FD602724FE605624FE605524FE70030248AB24FE700302EA
:20476600492E24E670030249B024FE70030249C60249C6741612C53EEF240FF582EE340033
:20478600F583E0900A03F0900A03E024DF50028012900A03E024FB40028008900A03E0FFE8
:2047A60012636C0249C60249C6741612C53EEF240FF582EE3400F583E0900A03F0900A0314
:2047C600E0B422061200260248A8900A03E024FB402B900A03E014600B14600D14600F14D2
:2047E6006013801612000E801112A156800C7F0612A02B80057F06129EF40248A8900A03C5
:20480600E0FA7404D39AE43324DF50030248A8AF0212640A900182E0FEA3E0FF740812C47E
:20482600EC9002AAE0FEA3E0FF740A12C4EC900554E0FEA3E0FF740C12C4EC900556E0FE56
:20484600A3E0FF740E12C4EC740812C53EE4FDFC12CA6E740C12C53EEE3395E0FDFC12C9D5
:20486600B5741212C506740A12C53EAA06AB07740E12C53EC3EB9FFFEA9EFE741012C4EC76
:20488600900A10E4F0A3F0900A0E74FFF0A3F0741012C53EAB07AA06741212C5571265EC51
:2048A60080000249C6741612C53EEF240FF582EE3400F583E014601714601F146027146082
:2048C6002F14603714603F14604714604F80567A01AF02740412C4D2804B7A10AF02740328
:2048E60012C4D280407A40AF02740312C4D280357A01AF02740512C4D2802A7A04AF027471
:204906000512C4D2801F7A10AF02740512C4D280147A40AF02740512C4D280097A08AF020D
:20492600740412C4D20249C6741612C53EEF240FF582EE3400F583E014601714601F1460FC
:204946002714602F14603714603F14604714604F80567A02AF02740412C4D2804B7A20AF74
:2049660002740312C4D280407A80AF02740312C4D280357A02AF02740512C4D2802A7A0857
:20498600AF02740512C4D2801F7A20AF02740512C4D280147A80AF02740512C4D280097AD1
:2049A60010AF02740412C4D28016741612C53EEF240FF582EE3400F583E090017FF0800048
:2049C60090032BE0FB7A00740012C58AAD07AC067F2E7E0312C20C90032DE09001E6FAE084
:2049E600FD7C00ED2410FDEC3400FCEA6D6003024A6DEC7072741612C53EEF2407F582EE9F
:204A06003400F583EAF090032CE0FA741612C53EEF2406F582EE3400F583EAF0741612C56D
:204A26003EEF240AF582EE3400F5837408F090032AE0FA741612C53EEF2408F582EE3400AE
:204A4600F583EAF090032BE0FB7A007D2E7C03741612C53EEF240CFFEE3400FE12C20C7490
:204A66001612C53E1218AC7A007B1802C61B740312C5A7EEF0A3EFF0A3EDF07E007F061255
:204A8600C5F8740612C53E8F828E83E0B40152740612C53EEF2401F582EE3400F583E0FE29
:204AA600A3E0FF740012C4EC740812C526FA740012C53E8F828E83EAF0740012C57612C6A7
:204AC600F7740012C53EAA06AB07740612C53EEF2401F582EE3400F583EAF0EBA3F0024C94
:204AE6006C740612C53E8F828E83E0B40256740612C53EEF2401F582EE3400F583E0FEA372
:204B0600E0FF740012C4EC7B017A00740812C58AAD07AC06740012C53E125966740012C59C
:204B26007612C6F7740012C53EAA06AB07740612C53EEF2401F582EE3400F583EAF0EBA323
:204B4600F0024C6C8050740612C53EEF2401F582EE3400F583E0FAA3E0FBEB4A6038740286
:204B660012C58A740412C4EC740612C53EEF2401F582EE3400F583E0FAA3E0FB740412C539
:204B86003E8F828E83EAF0EBA3F0740212C53E8F828E8312C6C6740612C53E12B49060A621
:204BA600740812C526FD740612C53E12B519740612C53EEF2407F582EE3400F583E0B401BB
:204BC60003024C6C740812C58AAD07AC06740612C53E12B5C9740612C53EEF2403F582EEA6
:204BE6003400F583E0700F75840FC2B3758400740812C526F599740612C53EEF2403F5820B
:204C0600EE3400F583E0B4010F75840FC2B1758401740812C526F599740612C53EEF24032F
:204C2600F582EE3400F583E0B4020B740812C526FD7F0012B85C740612C53EEF2403F58285
:204C4600EE3400F583E0B4030B740812C526FD7F0012B8DA740612C53EEF2407F582EE3437
:204C660000F5837401F07A007B0902C61B740612C5A7EEF0A3EFF0A3ECF0A3EDF0A3EAF09C
:204C8600A3EBF07E007F2F12C5F87A01AF02740612C4D2743112C53E740012C4EC0251D133
:204CA600740612C526B4014B740012C53E8F828E83E49364256017740012C53E8F828E83AA
:204CC600E493FD742F12C53E124A740251C990097FE4F0A3F07A01AF02740812C4D27A006D
:204CE600AF02740612C4D27A00AF02740F12C4D20251C9740612C52660030251C9740012ED
:204D0600C53E8F828E83E493B46338743312C53E8F828E837F027E0012C7288F828E83E0C2
:204D2600FEA3E0FF741912C4EC741A12C526FD742F12C53E124A747A01AF02740612C4D240
:204D46000251C9740012C53E8F828E83E493B473028003024DE2743312C53E8F828E837FD5
:204D6600027E0012C7288F828E83E0FEA3E0FF740B12C4ECE4FFFE741112C4EC8023740B9F
:204D860012C53E8F828E83E0FD742F12C53E124A74740B12C57612C6F7741112C57612C62C
:204DA600F7740B12C53E8F828E83E070D17A01AF02740612C4D2800A7D20742F12C53E12E0
:204DC6004A7490097FE0FAA3E0FB741112C57612C73AC3EF9BEE9A40DF0251C9740012C55F
:204DE6003E8F828E83E493B453028003024E7D743312C53E8F828E837F027E0012C7288F10
:204E0600828E83E0FEA3E0FF740D12C4ECE4FFFE741312C4EC8024740D12C53E8F828E83D0
:204E2600E493FD742F12C53E124A74740D12C57612C6F7741312C57612C6F7740D12C53E9A
:204E46008F828E83E49370CF7A01AF02740612C4D2800A7D20742F12C53E124A7490097F5F
:204E6600E0FAA3E0FB741312C57612C73AC3EF9BEE9A40DF0251C9740012C53E8F828E8332
:204E8600E49364646013740012C53E8F828E83E493B4750280030250827A00AF02740712FE
:204EA600C4D2740812C526B401028003024F2C743312C53E8F828E837F027E0012C7288FB9
:204EC600828E83E0FEA3E0FF741712C4EC741712C53EE4FDFC740212C506740012C53E8FA4
:204EE600828E83E493B4643C740212C55712CA6EE4FCFD7E80FF12C9A1EF4E4D4C60257A35
:204F060001AF02740712C4D2E47CFF7DFFFEFF740212C57612C8E5740212C55712CC057461
:204F26000212C5068057743312C53E8F828E837F047E0012C7288F828E8312C981740212CF
:204F4600C506740012C53E8F828E83E493B4642D740212C55712CA6EE47C80FDFEFF12C976
:204F6600A1EF4E4D4C60167A01AF02740712C4D2740212C55712CC05740212C506E4FFFE34
:204F8600740912C4EC740212C55712CA6EE4FCFDFE7F0A12CB6E12CC1A74302FFA740912DB
:204FA600C57612C73AAC06AD07741B12C58A8F828E83AF05AE0412C6ECEAF0E4FCFDFE7FC7
:204FC6000A740212C57612C950740212C557EF4E4D4C70B1740912C53E741512C4EC7407E0
:204FE60012C5266008741512C57612C6F780277A20AF02741012C4D2740F12C52660097A20
:2050060030AF02741012C4D2741012C526FD742F12C53E124A7490097FE0FAA3E0FB74157E
:2050260012C57612C73AC3EF9BEE9A40C2740712C526600A7D2D742F12C53E124A747409A2
:2050460012C57612C6B2AA06AB07741B12C58A8F828E83AF03AE0212C6ECE0FD742F12C582
:205066003E124A74740912C53EEE20E7034F70CE7A01AF02740612C4D20251C9740012C550
:205086003E8F828E83E49364586013740012C53E8F828E83E493B47802800302514774081B
:2050A60012C526B40126743312C53E8F828E837F027E0012C7288F828E83E0FEA3E0FFEEC4
:2050C6003395E0FDFC740212C506801C743312C53E8F828E837F047E0012C7288F828E8338
:2050E60012C981740212C50690097FE0FAA3E0FBEB4A701E740812C526B4010C90097F7402
:2051060000F07404A3F0800A90097F7400F07408A3F090097FE0FAA3E0FB900B06EAF0EBA3
:20512600A3F0740212C557900B0212CB4B742F12C53E12BAB57A01AF02740612C4D2025193
:20514600C9740012C53E8F828E83E493B4300B7A01AF02740F12C4D28069740012C53E8F17
:20516600828E83E493B46C0B7A02AF02740812C4D28050740012C53E8F828E83E49324CFBE
:205186005036740012C53E8F828E83E49324C6402790097F7F0A7E0012C65C740012C53E34
:2051A6008F828E83E493FF7E007D307C0012C70B90097F12C67B800B7A01AF02740612C454
:2051C600D28018740012C57612C6F7740012C53E8F828E83E4936003024CA6742F12C53E9E
:2051E6008F828E83E06401600D742F12C53E8F828E83E0B4020A7D00742F12C53E124A7456
:205206007A007B3502C61B740412C5A7EEF0A3EFF0A3ECF0A3EDF07E007F0212C5F87406DE
:2052260012C58A740012C4EC90097C7401F00412C53E90097DEEF0EFA3F0740012C58AAB48
:2052460007AA06740412C53EAD07AC067F7C7E09124C73E4FFFE740012C4EC7A007B060237
:20526600C61B740412C5A7EEF0A3EFF0A3ECF0A3EDF07E007F0212C5F8740612C58A7400D5
:2052860012C4EC90097C7402F012C53E90097DEEF0EFA3F0740012C58AAB07AA067404127F
:2052A600C53EAD07AC067F7C7E09124C73E4FFFE740012C4EC7A007B0602C61B740412C5E8
:2052C600A7EEF0A3EFF0A3ECF0A3EDF07E007F0212C5F8740612C58A740012C4EC7400125D
:2052E600C58AAB07AA06740412C53EAD07AC06740212C53E124C73E4FFFE740012C4EC7A17
:20530600007B0602C61B740212C5A7EEF0A3EFF07E007F0212C5F8740412C58A740012C4DE
:20532600EC740012C58AAB07AA06740212C53EAD07AC067FD57E06124C73E4FFFE74001243
:20534600C4EC7A007B0402C61B740212C5A7EEF0A3EFF07E007F0212C5F8740412C58A744C
:205366000012C4EC740012C58AAB07AA06740212C53EAD07AC067F527E08124C73E4FFFE34
:20538600740012C4EC7A007B0402C61B740212C5A7EEF0A3EFF07E007F0212C5F874041249
:2053A600C58A740012C4EC740012C58AAB07AA06740212C53EAD07AC067FD77E05124C7390
:2053C600E4FFFE740012C4EC7A007B0402C61B740212C5A7EEF0A3EFF07E007F0212C5F8B2
:2053E600740412C58A740012C4EC740012C58AAB07AA06740212C53EAD07AC067F547E0718
:20540600124C73E4FFFE740012C4EC7A007B0402C61B740212C5A7EEF0A3EFF07E007F165B
:2054260012C5F87A00AF02740012C4D2741B12C526FF7E007D007C0112C76E740012C57645
:20544600E0FA04F0EAFA740212C58A8F828E83EA12C6C8EDF0E4FCFD7E01FF741812C57600
:2054660012C950741812C557EF4E4D4C70BE740012C526FF740112C4D27A00AF02740012FF
:20548600C4D28017741612C57612C73A8F828E837400F0740012C576E004F0740112C52662
:2054A600FD7C00741C12C52675F00284FF7E0012C70B740012C526FB7A00C3EB9FEA9E30A9
:2054C600D202B2E720E7BD740112C576E014F0FA740212C58A8F828E83EA12C6C8E0FA7424
:2054E6001612C57612C73A8F828E83EAF0740112C52670D3741612C53E8F828E837400F05A
:20550600FA7B1802C61B7E007F0F12C5F875840F75B7007F007EEE740D12C4EC740D12C580
:205526003E125B70BF071DBE051A740D12C53EEF2406FFEE3400FE125B7074456F700574CE
:20554600196E6050E4FFFE740512C4EC7A00AF02740712C4D27A00AF02740812C4D27F07CF
:205566007E05740312C4EC7F457E19740912C4EC7FEE1258F87B087A00740312C58AAD0777
:20558600AC067F007EEE1259667D007CE37FD77E051252C27F007EF0740012C4EC74001213
:2055A600C53E125B70BF0720BE121D740012C53EEF244FFFEE3400FE125B7074416F7008AF
:2055C60074196E70030257787FF01258F87D077C12740012C53E125A197D417C19740012BC
:2055E600C53EEF244FFFEE3400FE125A199001E6E0FB7A00EB2401FFEA3400FE12C5D67D7B
:20560600C17CE2740212C53EEF2402FFEE3400FE1252687B0212C5939001E6E0FB7A00EB3C
:205626002401FFEA3400FE12C5D67DAE7CE2740212C53EEF240EFFEE3400FE1252687B02DA
:2056460012C5939001E6E0FB7A00EB2401FFEA3400FE12C5D67D187CE3740212C53EEF24A4
:205666001AFFEE3400FE1252687B0212C593E4FDFC740012C53EEF2426FFEE3400FE125A0E
:20568600197D00740012C53EEF2428FFEE3400FE125AC87D00740012C53EEF2429FFEE34F4
:2056A60000FE125AC8E4FDFC740012C53EEF244BFFEE3400FE125A19E4FDFC740012C53EE4
:2056C600EF244DFFEE3400FE125A197DBC7CE2740012C53EEF242CFFEE3400FE1252687DF9
:2056E600D07CE2740012C53EEF243AFFEE3400FE1252687DDC7C05740012C53EEF2438FF08
:20570600EE3400FE125A197D087C07740012C53EEF2447FFEE3400FE125A19E4FDFC7400FE
:2057260012C53EEF244BFFEE3400FE125A19E4FDFC740012C53EEF244DFFEE3400FE125AFB
:20574600197DC97C00740012C53EEF2449FFEE3400FE125A197D00740012C53EEF242BFF9C
:20576600EE3400FE125AC87DED7CE27FD77E051252C27B0C7A00740012C53EEF2402FDEE7E
:205786003400FC7FFC7E04125C1E7B0C7A00740012C53EEF240EFDEE3400FC7F087E051268
:2057A6005C1E7B0C7A00740012C53EEF241AFDEE3400FC7F147E05125C1E7B257A00740067
:2057C60012C53EEF242AFDEE3400FC7F337E05125C1E900541E0FCA3E0FD7F5A7E0012C733
